{"abi":[{"type":"constructor","inputs":[{"name":"_ensRegistry","type":"address","internalType":"address"}],"stateMutability":"nonpayable"},{"type":"function","name":"chainIdIndex","inputs":[{"name":"","type":"bytes32","internalType":"bytes32"},{"name":"","type":"string","internalType":"string"}],"outputs":[{"name":"","type":"uint256","internalType":"uint256"}],"stateMutability":"view"},{"type":"function","name":"ensRegistry","inputs":[],"outputs":[{"name":"","type":"address","internalType":"contract IENSRegistry"}],"stateMutability":"view"},{"type":"function","name":"getENSRegistry","inputs":[],"outputs":[{"name":"registry","type":"address","internalType":"address"}],"stateMutability":"view"},{"type":"function","name":"getNodeChainIds","inputs":[{"name":"node","type":"bytes32","internalType":"bytes32"}],"outputs":[{"name":"chainIds","type":"string[]","internalType":"string[]"}],"stateMutability":"view"},{"type":"function","name":"getNodeOwner","inputs":[{"name":"node","type":"bytes32","internalType":"bytes32"}],"outputs":[{"name":"owner","type":"address","internalType":"address"}],"stateMutability":"view"},{"type":"function","name":"getVerifiedAddress","inputs":[{"name":"node","type":"bytes32","internalType":"bytes32"},{"name":"chainId","type":"string","internalType":"string"}],"outputs":[{"name":"addr","type":"string","internalType":"string"},{"name":"proofHash","type":"bytes32","internalType":"bytes32"},{"name":"verifiedAt","type":"uint256","internalType":"uint256"}],"stateMutability":"view"},{"type":"function","name":"getVerifiedAddressCount","inputs":[{"name":"node","type":"bytes32","internalType":"bytes32"}],"outputs":[{"name":"count","type":"uint256","internalType":"uint256"}],"stateMutability":"view"},{"type":"function","name":"hasVerifiedAddress","inputs":[{"name":"","type":"bytes32","internalType":"bytes32"},{"name":"","type":"string","internalType":"string"}],"outputs":[{"name":"","type":"bool","internalType":"bool"}],"stateMutability":"view"},{"type":"function","name":"hasVerifiedAddressForChain","inputs":[{"name":"node","type":"bytes32","internalType":"bytes32"},{"name":"chainId","type":"string","internalType":"string"}],"outputs":[{"name":"exists","type":"bool","internalType":"bool"}],"stateMutability":"view"},{"type":"function","name":"nodeChainIds","inputs":[{"name":"","type":"bytes32","internalType":"bytes32"},{"name":"","type":"uint256","internalType":"uint256"}],"outputs":[{"name":"","type":"string","internalType":"string"}],"stateMutability":"view"},{"type":"function","name":"removeVerifiedAddress","inputs":[{"name":"node","type":"bytes32","internalType":"bytes32"},{"name":"chainId","type":"string","internalType":"string"}],"outputs":[],"stateMutability":"nonpayable"},{"type":"function","name":"setVerifiedAddress","inputs":[{"name":"node","type":"bytes32","internalType":"bytes32"},{"name":"chainId","type":"string","internalType":"string"},{"name":"addr","type":"string","internalType":"string"},{"name":"proofHash","type":"bytes32","internalType":"bytes32"},{"name":"verifiedAt","type":"uint256","internalType":"uint256"}],"outputs":[],"stateMutability":"nonpayable"},{"type":"function","name":"verifiedAddresses","inputs":[{"name":"","type":"bytes32","internalType":"bytes32"},{"name":"","type":"string","internalType":"string"}],"outputs":[{"name":"addr","type":"string","internalType":"string"},{"name":"proofHash","type":"bytes32","internalType":"bytes32"},{"name":"verifiedAt","type":"uint256","internalType":"uint256"}],"stateMutability":"view"},{"type":"event","name":"VerifiedAddressRemoved","inputs":[{"name":"node","type":"bytes32","indexed":true,"internalType":"bytes32"},{"name":"chainId","type":"string","indexed":true,"internalType":"string"}],"anonymous":false},{"type":"event","name":"VerifiedAddressSet","inputs":[{"name":"node","type":"bytes32","indexed":true,"internalType":"bytes32"},{"name":"chainId","type":"string","indexed":true,"internalType":"string"},{"name":"addr","type":"string","indexed":false,"internalType":"string"},{"name":"proofHash","type":"bytes32","indexed":false,"internalType":"bytes32"},{"name":"verifiedAt","type":"uint256","indexed":false,"internalType":"uint256"}],"anonymous":false},{"type":"error","name":"EmptyAddress","inputs":[]},{"type":"error","name":"EmptyChainId","inputs":[]},{"type":"error","name":"NotNodeOwner","inputs":[{"name":"node","type":"bytes32","internalType":"bytes32"},{"name":"caller","type":"address","internalType":"address"}]},{"type":"error","name":"VerifiedAddressNotFound","inputs":[{"name":"node","type":"bytes32","internalType":"bytes32"},{"name":"chainId","type":"string","internalType":"string"}]}],"bytecode":{"object":"0x60a060405234801561001057600080fd5b506040516115d63803806115d683398101604081905261002f9161009a565b6001600160a01b0381166100895760405162461bcd60e51b815260206004820152601c60248201527f496e76616c696420454e53205265676973747279206164647265737300000000604482015260640160405180910390fd5b6001600160a01b03166080526100ca565b6000602082840312156100ac57600080fd5b81516001600160a01b03811681146100c357600080fd5b9392505050565b6080516114d561010160003960008181610185015281816101f3015281816102d30152818161045b0152610b3901526114d56000f3fe608060405234801561001057600080fd5b50600436106100cf5760003560e01c806368ed4b9c1161008c57806392ba50af1161006657806392ba50af14610254578063a28d5d8c14610267578063b7d72f1d14610287578063fbd8fa271461029a57600080fd5b806368ed4b9c146101cb5780637d73b231146101ee578063809d331e1461021557600080fd5b80631c09629a146100d45780631d3a4ddd1461010457806325ff6eca1461012457806328bc5044146101395780632f68079514610183578063531d1763146101a9575b600080fd5b6100e76100e2366004610e65565b6102ba565b6040516001600160a01b0390911681526020015b60405180910390f35b610117610112366004610e65565b61034c565b6040516100fb9190610ece565b610137610132366004610f79565b610438565b005b610175610147366004610fdb565b6003602090815260009283526040909220815180830184018051928152908401929093019190912091525481565b6040519081526020016100fb565b7f00000000000000000000000000000000000000000000000000000000000000006100e7565b6101bc6101b7366004610f79565b61080c565b6040516100fb93929190611096565b6101de6101d9366004610f79565b610960565b60405190151581526020016100fb565b6100e77f000000000000000000000000000000000000000000000000000000000000000081565b6101de610223366004610fdb565b6001602090815260009283526040909220815180830184018051928152908401929093019190912091525460ff1681565b6101bc610262366004610fdb565b61099a565b61027a6102753660046110bb565b610a5d565b6040516100fb91906110dd565b6101376102953660046110f7565b610b16565b6101756102a8366004610e65565b60009081526002602052604090205490565b6040516302571be360e01b8152600481018290526000907f00000000000000000000000000000000000000000000000000000000000000006001600160a01b0316906302571be390602401602060405180830381865afa158015610322573d6000803e3d6000fd5b505050506040513d601f19601f820116820180604052508101906103469190611180565b92915050565b606060026000838152602001908152602001600020805480602002602001604051908101604052809291908181526020016000905b8282101561042d5783829060005260206000200180546103a0906111a9565b80601f01602080910402602001604051908101604052809291908181526020018280546103cc906111a9565b80156104195780601f106103ee57610100808354040283529160200191610419565b820191906000526020600020905b8154815290600101906020018083116103fc57829003601f168201915b505050505081526020019060010190610381565b505050509050919050565b6040516302571be360e01b81526004810184905283906000906001600160a01b037f000000000000000000000000000000000000000000000000000000000000000016906302571be390602401602060405180830381865afa1580156104a2573d6000803e3d6000fd5b505050506040513d601f19601f820116820180604052508101906104c69190611180565b90506001600160a01b03811633146104ff5760405163016a3cab60e31b8152600481018390523360248201526044015b60405180910390fd5b60008581526001602052604090819020905161051e90869086906111e3565b9081526040519081900360200190205460ff166105545784848460405163b8c2113160e01b81526004016104f69392919061121c565b60008581526020819052604090819020905161057390869086906111e3565b908152604051908190036020019020600061058e8282610e0f565b50600060018281018290556002909201819055868152602091909152604080822090516105be90879087906111e3565b9081526040805160209281900383018120805460ff19169415159490941790935560008881526003909252812090916105fa90879087906111e3565b90815260408051602092819003830190205460008981526002909352908220549092506106299060019061123f565b905080821461075757600087815260026020526040812080548390811061065257610652611260565b906000526020600020018054610667906111a9565b80601f0160208091040260200160405190810160405280929190818152602001828054610693906111a9565b80156106e05780601f106106b5576101008083540402835291602001916106e0565b820191906000526020600020905b8154815290600101906020018083116106c357829003601f168201915b5050505050905080600260008a8152602001908152602001600020848154811061070c5761070c611260565b90600052602060002001908161072291906112c5565b5082600360008a8152602001908152602001600020826040516107459190611385565b90815260405190819003602001902055505b6000878152600260205260409020805480610774576107746113a1565b6001900381819060005260206000200160006107909190610e0f565b90556000878152600360205260409081902090516107b190889088906111e3565b908152604051908190036020018120600090556107d190879087906111e3565b6040519081900381209088907f1bc514ece02e8f9006657dfb08f0066f14c46ffd896d68c9129afdc04c22c93190600090a350505050505050565b600083815260016020526040808220905160609291829161083090879087906111e3565b9081526040519081900360200190205460ff166108665785858560405163b8c2113160e01b81526004016104f69392919061121c565b600086815260208190526040808220905161088490889088906111e3565b90815260200160405180910390206040518060600160405290816000820180546108ad906111a9565b80601f01602080910402602001604051908101604052809291908181526020018280546108d9906111a9565b80156109265780601f106108fb57610100808354040283529160200191610926565b820191906000526020600020905b81548152906001019060200180831161090957829003601f168201915b5050509183525050600182015460208083019190915260029092015460409182015282519183015192015190999198509650945050505050565b600083815260016020526040808220905161097e90859085906111e3565b9081526040519081900360200190205460ff1690509392505050565b600060208181529281526040902081518083018401805192815290840192909301919091209152805481906109ce906111a9565b80601f01602080910402602001604051908101604052809291908181526020018280546109fa906111a9565b8015610a475780601f10610a1c57610100808354040283529160200191610a47565b820191906000526020600020905b815481529060010190602001808311610a2a57829003601f168201915b5050505050908060010154908060020154905083565b60026020528160005260406000208181548110610a7957600080fd5b90600052602060002001600091509150508054610a95906111a9565b80601f0160208091040260200160405190810160405280929190818152602001828054610ac1906111a9565b8015610b0e5780601f10610ae357610100808354040283529160200191610b0e565b820191906000526020600020905b815481529060010190602001808311610af157829003601f168201915b505050505081565b6040516302571be360e01b81526004810188905287906000906001600160a01b037f000000000000000000000000000000000000000000000000000000000000000016906302571be390602401602060405180830381865afa158015610b80573d6000803e3d6000fd5b505050506040513d601f19601f82011682018060405250810190610ba49190611180565b90506001600160a01b0381163314610bd85760405163016a3cab60e31b8152600481018390523360248201526044016104f6565b6000859003610bfa57604051637138356f60e01b815260040160405180910390fd5b6000879003610c1c576040516339ac070960e21b815260040160405180910390fd5b6000898152600160205260408082209051610c3a908b908b906111e3565b9081526040519081900360200190205460ff161590508015610ccb5760008a815260026020908152604082208054600181018255908352912001610c7f898b836113b7565b5060008a815260026020526040902054610c9b9060019061123f565b60008b815260036020526040908190209051610cba908c908c906111e3565b908152604051908190036020019020555b604051806060016040528088888080601f0160208091040260200160405190810160405280939291908181526020018383808284376000920182905250938552505050602080830189905260409283018890528d82528190528190209051610d36908c908c906111e3565b90815260405190819003602001902081518190610d5390826112c5565b50602082015181600101556040820151816002015590505060018060008c81526020019081526020016000208a8a604051610d8f9291906111e3565b908152604051908190036020018120805492151560ff1990931692909217909155610dbd908a908a906111e3565b60405180910390208a7fbe88d2e69edadcba02dbd68329af01978aca538dbcde2216ac1fc70391efd7f689898989604051610dfb9493929190611478565b60405180910390a350505050505050505050565b508054610e1b906111a9565b6000825580601f10610e2b575050565b601f016020900490600052602060002090810190610e499190610e4c565b50565b5b80821115610e615760008155600101610e4d565b5090565b600060208284031215610e7757600080fd5b5035919050565b60005b83811015610e99578181015183820152602001610e81565b50506000910152565b60008151808452610eba816020860160208601610e7e565b601f01601f19169290920160200192915050565b6000602080830181845280855180835260408601915060408160051b870101925083870160005b82811015610f2357603f19888603018452610f11858351610ea2565b94509285019290850190600101610ef5565b5092979650505050505050565b60008083601f840112610f4257600080fd5b50813567ffffffffffffffff811115610f5a57600080fd5b602083019150836020828501011115610f7257600080fd5b9250929050565b600080600060408486031215610f8e57600080fd5b83359250602084013567ffffffffffffffff811115610fac57600080fd5b610fb886828701610f30565b9497909650939450505050565b634e487b7160e01b600052604160045260246000fd5b60008060408385031215610fee57600080fd5b82359150602083013567ffffffffffffffff8082111561100d57600080fd5b818501915085601f83011261102157600080fd5b81358181111561103357611033610fc5565b604051601f8201601f19908116603f0116810190838211818310171561105b5761105b610fc5565b8160405282815288602084870101111561107457600080fd5b8260208601602083013760006020848301015280955050505050509250929050565b6060815260006110a96060830186610ea2565b60208301949094525060400152919050565b600080604083850312156110ce57600080fd5b50508035926020909101359150565b6020815260006110f06020830184610ea2565b9392505050565b600080600080600080600060a0888a03121561111257600080fd5b87359650602088013567ffffffffffffffff8082111561113157600080fd5b61113d8b838c01610f30565b909850965060408a013591508082111561115657600080fd5b506111638a828b01610f30565b989b979a5095989597966060870135966080013595509350505050565b60006020828403121561119257600080fd5b81516001600160a01b03811681146110f057600080fd5b600181811c908216806111bd57607f821691505b6020821081036111dd57634e487b7160e01b600052602260045260246000fd5b50919050565b8183823760009101908152919050565b81835281816020850137506000828201602090810191909152601f909101601f19169091010190565b8381526040602082015260006112366040830184866111f3565b95945050505050565b8181038181111561034657634e487b7160e01b600052601160045260246000fd5b634e487b7160e01b600052603260045260246000fd5b601f8211156112c057600081815260208120601f850160051c8101602086101561129d5750805b601f850160051c820191505b818110156112bc578281556001016112a9565b5050505b505050565b815167ffffffffffffffff8111156112df576112df610fc5565b6112f3816112ed84546111a9565b84611276565b602080601f83116001811461132857600084156113105750858301515b600019600386901b1c1916600185901b1785556112bc565b600085815260208120601f198616915b8281101561135757888601518255948401946001909101908401611338565b50858210156113755787850151600019600388901b60f8161c191681555b5050505050600190811b01905550565b60008251611397818460208701610e7e565b9190910192915050565b634e487b7160e01b600052603160045260246000fd5b67ffffffffffffffff8311156113cf576113cf610fc5565b6113e3836113dd83546111a9565b83611276565b6000601f84116001811461141757600085156113ff5750838201355b600019600387901b1c1916600186901b178355611471565b600083815260209020601f19861690835b828110156114485786850135825560209485019460019092019101611428565b50868210156114655760001960f88860031b161c19848701351681555b505060018560011b0183555b5050505050565b60608152600061148c6060830186886111f3565b602083019490945250604001529291505056fea26469706673582212206d91554bc1673ce7ce1788c8dc68e11260cc0fb632770264b03797d331b119b464736f6c63430008130033","linkReferences":{}},"methodIdentifiers":{"chainIdIndex(bytes32,string)":"28bc5044","ensRegistry()":"7d73b231","getENSRegistry()":"2f680795","getNodeChainIds(bytes32)":"1d3a4ddd","getNodeOwner(bytes32)":"1c09629a","getVerifiedAddress(bytes32,string)":"531d1763","getVerifiedAddressCount(bytes32)":"fbd8fa27","hasVerifiedAddress(bytes32,string)":"809d331e","hasVerifiedAddressForChain(bytes32,string)":"68ed4b9c","nodeChainIds(bytes32,uint256)":"a28d5d8c","removeVerifiedAddress(bytes32,string)":"25ff6eca","setVerifiedAddress(bytes32,string,string,bytes32,uint256)":"b7d72f1d","verifiedAddresses(bytes32,string)":"92ba50af"},"id":0}